:020000040000FA
:1000000028030020550100005D0100005F01000091
:10001000610100006301000065010000FFFFFFFFB8
:10002000FFFFFFFFFFFFFFFFFFFFFFFF6701000074
:1000300069010000FFFFFFFF6B0100006D01000080
:100040006F0100006F0100006F0100006F010000F0
:100050006F0100006F0100006F0100006F010000E0
:100060006F0100001D0300002D0300006F01000060
:100070006F0100006F0100006F0100006F010000C0
:100080006F0100006F0100006F0100006F010000B0
:100090006F0100006F0100006F0100000D03000000
:1000A0006F0100006F010000FFFFFFFF6F01000004
:1000B0006F0100006F0100006F0100006F01000080
:1000C0006F0100006F0100006F0100006F01000070
:1000D0006F010000FFFFFFFFFFFFFFFFFFFFFFFFBC
:1000E000FFFFFFFF6F0100006F0100006F010000C4
:1000F0006F0100006F0100006F0100006F01000040
:100100006F0100006F0100006F0100006F0100002F
:100110006F01000019100000FFFFFFFF6F010000DA
:100120006F0100006F0100006F0100006F0100000F
:100130006F0100006F0100006F010000FFFFFFFF73
:10014000FFFFFFFFFFFFFFFFFFFFFFFFFFFFFFFFBF
:100150006F0100000648804706480047FEE7FEE7BB
:10016000FEE7FEE7FEE7FEE7FEE7FEE7FEE7FEE767
:10017000C907000079010000DFF80CD000F006F894
:10018000004800474512000028030020064C074D98
:1001900006E0E06840F0010394E807009847103457
:1001A000AC42F6D3FFF7ECFFE813000008140000A0
:1001B0002DE9F0479146164A4FF0FF0A02EBC005C1
:1001C000002200240AFA02F02346084219D04FF018
:1001D000010C00200CFA02FC4FF00F0821FA00F687
:1001E00016EA0C0F06D0860008FA06F73C4309FA17
:1001F00006F73B43401C0828F0D32868A043184367
:10020000286008322D1D082ADBDDBDE8F0870000DC
:100210002020024010B54FF48060002241010123EC
:1002200000F058F8BDE81040022000F065B800006A
:1002300070B5124E0446706B850F00F023F82060F5
:10024000012D05D00E48022D02D0032D00D0002034
:100250006060316AC840A0603168C1F3015120FA82
:1002600001F1E160B16AC1F30241072902D0C8403F
:10027000206170BD0621B0FBF1F0F9E70080084075
:1002800000127A000C49D1F8A400002813D0086AA3
:100290000A48D1F8FC1301290DD0094A9169C1F32C
:1002A000C55101B940219269C2F3415301229A40DC
:1002B000B0FBF2F0484370470000104300127A0090
:1002C0000080084000B585B06846FFF7B1FF02988E
:1002D00005B000BDF0B5074F7C6AFD6A3E6B8443F4
:1002E0008D43964313B104430D4316437C62FD6274
:1002F0003E63F0BD0080084003490A6822F44002D2
:1003000042EA80500860704700800840024901209E
:1003100008600F2000F012B81801002002490120E7
:10032000486000F00BB800001801002002490120CD
:100330008860022000F002B81801002001218140ED
:1003400001484164816470470040024001218140BE
:1003500002488165BFF34F8F7047000000400240A4
:100360000449896D01228240114201D00120704769
:100370000020704700400240054B01228240186C6B
:10038000012902D09043186470471043FBE7000036
:100390000040024010B50123084C8340012A02D0DE
:1003A000206D984305E0606D29B118436065206DAC
:1003B0001843206510BD9843F8E700000040024054
:1003C000002A026801D00A4300E08A4302607047B5
:1003D000416270470AB14162704781627047000014
:1003E00010B500214FF4003001230A46FFF772FFD9
:1003F0000E4C012204212046FFF7E2FF00221021CB
:100400002046FFF7DDFF002214212046FFF7E2FF20
:1004100000F0EAF8002204212046FFF7DBFF204627
:100420000122BDE810400821FFF7D4BF00200B4097
:1004300010B5154C002204212046FFF7CBFF052202
:1004400012492A2000F07AF80121212000F09AF8C0
:100450000121222000F096F82821252000F092F8B2
:100460000521312000F08EF82721262000F08AF89F
:100470000F21202000F086F820460122BDE8104020
:100480000421FFF7A7BF000000200B40E11300008C
:100490002DE9F041DFF83C8015460E460446002267
:1004A00008214046FFF796FF204600F0E3F8074694
:1004B000002405E0FF2000F0DDF83055641CE4B2B4
:1004C000AC42F7D3012208214046FFF783FF3846AC
:1004D000BDE8F08100200B4070B50A4C05460022B3
:1004E00008212046FFF776FF284600F0C3F8FF20DA
:1004F00000F0C0F80546012208212046FFF76AFFF8
:10050000284670BD00200B4070B505460720FFF758
:10051000E3FF04460146272000F034F860060AD5C0
:10052000052229466120FFF7B3FFFF21E22000F0FA
:1005300029F8002070BD012070BD00002DE9F041B8
:10054000DFF83C8016460D4604460022082140464E
:10055000FFF740FF204600F08DF80746002405E035
:1005600015F8010B00F086F8641CE4B2B442F7D32E
:10057000012208214046FFF72DFF3846BDE8F081F3
:1005800000200B4070B50B4C0E460546002208219A
:100590002046FFF71FFF284600F06CF8054630465E
:1005A00000F068F8012208212046FFF713FF2846D3
:1005B00070BD000000200B40F0B50A4FD7F8044191
:1005C000D7F80851D7F80C6184438D43964313B193
:1005D00004430D431643C7F80441C7F80851C7F850
:1005E0000C61F0BD0080084070B5002410258CB06F
:1005F000680344F2100101232246FFF76BFE1C4EF4
:1006000008217068FFF7E4FE012208217068FFF7F7
:10061000D7FE052210210020FFF7CAFD0522202168
:100620000020FFF7C5FD052240210020FFF7C0FD97
:10063000A802CDE900040820CDE90204049407943F
:10064000059406940894CDE909454FF04024694685
:10065000204600F047F80121204600F06BF8012108
:10066000204600F02EF8FF2000F004F80CB070BD1A
:10067000C813000070B5064600244FF0402503E083
:10068000641CE4B2C82C0FD80221284600F023F8DD
:100690000028F5D03146284600F056F8002405E041
:1006A000641CE4B2C82C01D9002070BD0421284686
:1006B00000F011F80028F3D0284600F038F8C0B256
:1006C00070BD0029016802D041F0010101E021F074
:1006D0000101016070470246002052690A4200D0C1
:1006E0000120704730B5D1E90543E4B14FF4007201
:1006F000DA4022438C680B682343D1E903452C433D
:100700002343CC692343134343604B6A4A681A432B
:100710000B6A42EA03128261896A4FF0FF3202EBF0
:100720005101C16030BD4FF480729A40E2E7006928
:1007300080B270470029016802D041F0080101E051
:1007400021F0080101607047016170471C4810B535
:100750004068002833D000210120FFF70DFE194822
:1007600000F078F90446012807D10122114610460D
:10077000FFF710FE0120FFF7E9FD0120FFF7F0FD74
:10078000012802D0012C09D010E0012C0ED10D4817
:1007900000F04AFA012801D100F06EFA012100228E
:1007A0000846FFF7F7FD0120FFF7D0FD0120FFF716
:1007B000C5FD0121BDE810400846FFF7DDBD10BDB5
:1007C000000000204400002070B52B481021C0F824
:1007D0000C110121C0F80013284D2960284AD2F8D5
:1007E0000831272BFBD1426A22F440624262254A3B
:1007F000C2F8AC10D2F80C31002BFBD0436823F0C8
:100800000703DB1C4360436BDB439B0FFBD11E4C98
:10081000D4F8003223F007035B1CC4F80032002335
:100820000362C2F8A4301162C2F8A810D2F80861BD
:10083000002EFBD02B6013624FF010638361C2F86F
:10084000A410D2F80431002BFBD0D4F8002222F0FF
:100850000702D21CC4F800220162426822F003029F
:10086000521C4260426BB1EB927FFBD107480161A1
:100870000163C16170BD000000800840180610438C
:1008800000A0064000001043000008400040004364
:1008900070B504460D46C8888988226908432989AD
:1008A00022F01F02114308432061606A698920F029
:1008B000030008436062B4F1804F0AD00B488442C1
:1008C00009D11A20FFF7FEFC2968B0FBF1F0A06304
:1008D00070BD1820F6E70648844201D11C20F1E7DC
:1008E00004488442F4D11E20ECE7000000000440DC
:1008F00000100040001004404FF480738B40C1682A
:100900000AB1194300E09943C160704701490120D1
:10091000486070471000002001490120886070473E
:1009200010000020054901600549816105494162C7
:100930000549C16205494163704700009D090000F7
:100940000D0A0000A10900000D09000019090000AE
:1009500070B50F4900240F480C704C7002798A70F2
:10096000091F02780A70C278CA7042784A700A4D2C
:10097000807888702878012809D10422032000F0AB
:1009800071FA08220249012000F06CFA2C7070BD47
:10099000240000200800002000000020FFF7D8BF3E
:1009A000018840F62112914214D024DCA1F5807117
:1009B000A13920D1C378C2888188012B1BD131B1E4
:1009C000012918D10C49C0E90712012111E00A4997
:1009D000091DF8E7C278C188022A0CD18288002A52
:1009E00009D1054A121FC261044AC0E90A21016205
:1009F000022180F82410704720000020010A000026
:100A0000014901200860704710000020C2788188E9
:100A10000123212A05D0222A19D169B101290FD039
:100A200013E031B1012912D1C1682B31C161092113
:100A30000AE0C1681231F9E70549C1613F2103E0CD
:100A400003494031C1613421016280F8243070478C
:100A5000E012000090F83400C0F3400070472DE928
:100A6000F041044600F03AFA0546800706D5E16CED
:100A700009B1206D8847022000F014F9E8060FD56F
:100A8000102000F00FF994F83200022808D300F08B
:100A90002FFA94F8320084F83300032084F83200EF
:100AA00068074FF0000620D5701ED4F8847044F813
:100AB000200F26746674207D20F00200207504202B
:100AC000A074A66100F010F900F01AFA0020616E1F
:100AD00000F068F9386800F0E9F9616A203C09B172
:100AE000A06C8847042000F0DDF8280708D500F046
:100AF00007FA94F8330084F83200082000F0D2F8A6
:100B0000E8054FF480777AD5002000F03BF90546E0
:100B1000800522D5204600F045FA84F8246026623C
:100B2000207810F0600002D0202808D103E0204691
:100B300000F0B4FA03E0216E204601B1884794F832
:100B40002400012820D0022827D0002000F07AF9C4
:100B50004FF40071002000F0DDF8E80606D52046CD
:100B600000F060FA1021002000F0D4F8A8072ED57C
:100B70000221002000F0CEF8206A401C27D094F813
:100B8000240002280FD022E0E088216A814200DDA3
:100B90002062204600F046FADAE7002211461046AD
:100BA00000F060F9D4E740220020E16900F02AF962
:100BB000E1690144E161216A081A206207D101203C
:100BC00084F82400A16A11B1E06A8847A662384619
:100BD00000F068F813E0284600F0D4F810F0120F87
:100BE0000DD01221284600F095F807FA05F000F024
:100BF00059F804EB8500416E09B12846884700F09A
:100C00006DF900F05BF90546401CE4D1BDE8F081C8
:100C100004490860022180F83210D0F8840000F006
:100C200065B900003C00002090F83200032801D094
:100C3000002070470120704710B5044690F834003A
:100C400000F00101D4F8840000F062F994F8320059
:100C5000032805D1D4F8881011B1D4F88C00884746
:100C6000E16B002907D094F83200062803D1206CEC
:100C7000BDE81040084710BD10B500F041F9BDE8CF
:100C8000104000F097B90000044901601431416040
:100C9000034981600421C1607047000054130000C3
:100CA0002C000020014988607047000000800A4045
:100CB00005490128086803D020F4006008607047E7
:100CC00040F40060FAE7000000800A40054901286E
:100CD000086803D020F480600860704740F48060AA
:100CE000FAE7000000800A400021202001230A4684
:100CF000FFF762BC10B500F08DFA016801F0090140
:100D0000016010BD10B500F085FA016801F0240102
:100D1000016010BD10B50C4600F07CFA846010BD77
:100D200010B500F077FA00690249C0F309000844E1
:100D300010BD000000A00A4070B5054600F06AFA38
:100D40000446284600F00AF82169C1F30901084465
:100D50000149084470BD000000A00A4010B500F031
:100D600059FA0069C0F3892010BD10B500F052FA9D
:100D700001690068C90002D5C0F3800010BDC0F34E
:100D8000401010BD10B500F045FA41688068084079
:100D900010BD10B50C4600F03DFAC068E040C0F34D
:100DA000080010BD70B50C46054600F033FA04EBA0
:100DB000C5014A680261896841604FF0FF31816076
:100DC0002846BDE8704000F035B82DE9F0411646E0
:100DD0000F46050011D00021FFF7DBFF0446B042AB
:100DE00008D828465DB1FFF79BFFE11C8A08394609
:100DF00000F008FA2046BDE8F0811021ECE7FFF78B
:100E00009BFFF2E72DE9F04115460E46074600F03C
:100E100001FA044600203DB12A4631463846FFF724
:100E2000D4FF08B9002D03D1216801F01001216021
:100E3000BDE8F08110B500F0EDF9016801F019018D
:100E4000016010BD10B500F0E5F90421016010BD8E
:100E500010B500F0DFF94021816002682421914340
:100E6000016010BD2DE9F041144688460746FFF7A2
:100E700075FF0646384600F0CDF905460021384694
:100E8000FFF787FFB44200D810B10020BDE8F08121
:100E90003846FFF745FF0146E01C8208404600F057
:100EA000B1F9EC60022028602046EFE702494A6869
:100EB00002434A607047000000800A400346072151
:100EC00001F1080223FA02F0C20701D048B27047CC
:100ED000491E0029F4DC4FF0FF307047024841689A
:100EE000806808407047000000800A4000F044B865
:100EF0000248016841F00C010160704700800A401F
:100F00000248016801F480610160704700800A4076
:100F10000246174800B50168012927D10021016068
:100F2000144801684B064FF0FF3108D540F20C43DE
:100F30000360816010685DF804EBFFF7B7BF40F60F
:100F40000C43036081600020FFF7B2FE1068FFF7DA
:100F5000ADFF0020FFF7BAFEC8210020401C8842E8
:100F6000FCD301205DF804EBFFF7B0BE00BD00002C
:100F70004000002000800A4040F61D310160064913
:100F8000416040F21221816004491022C0E903123D
:100F90000349C0E9071270470800018088200091CA
:100FA0009020009302490A680260496841607047D6
:100FB00000A00A400248016841F02001016070472A
:100FC00000800A4003490A6842F480720A6008619E
:100FD0007047000000800A400C4910B5A1F1900054
:100FE00040F8841F0A49416008488838FFF74CFEE2
:100FF00006485438FFF796FC04489038FFF708FE7F
:1010000004494FF40010C1F8000110BDD4000020C5
:101010004D07000004E000E00148FFF720BD00009C
:101020004400002070B504460020FFF797FE0546F7
:10103000206A411C16D094F82410012912D1A8422C
:1010400002D3401B206205E00546002020620220FA
:1010500084F824002A460020E169FFF703FFE069D5
:101060002844E06170BD10B504460020607649B1A7
:10107000012909D0022910D1207900F00F00FFF7D3
:1010800074FE01E094F83400207604F11800E06169
:1010900002202062012084F8240010BD70B50446AF
:1010A00000880125B0F5A06F4DD020DCB0F5807F21
:1010B00042D00BDC80283BD081283BD0822864D1F1
:1010C00002212046BDE87040FFF7CDBFB0F5817F1B
:1010D00034D0B0F5407F33D0A0F54070023854D101
:1010E000012202212046BDE8704000F065B8B0F54D
:1010F000106F4DD00FDCB0F5D06F2BD0A0F5C060D5
:10110000813843D0A0F58070FF383ED104F1300023
:10111000C4E9070537E0A0F5206081384AD080286F
:1011200033D1A16D002930D02046BDE8704008477A
:101130000021C6E70121C4E7002202E00022D0E737
:1011400001220021CEE7A078FFF73CFF84F824506D
:1011500005202CE0E07801280FD002280FD00328CA
:1011600013D1A078616981420FD9216951F820001B
:1011700000280AD0E061007804E0A068FAE7E0689F
:10118000E0614088206284F8245070BD616DC9E739
:10119000A07884F8300084F82450012568B2D4F88F
:1011A0008410FFF7FFFD6D1C082DF7D3062084F88F
:1011B000320070BDE16DB5E770B50446012661B13E
:1011C000022909D1207910F00F0503D082B12846F9
:1011D000FFF73EFE84F8246070BDA0780128FBD1A3
:1011E00014F8340F62F3410004F81009267070BD42
:1011F000A06B0028EED12846FFF784FD2846FFF7B4
:1012000079FDE7E7521E04D450F8223041F822302D
:10121000F8E77047024900EB800001EB800070475F
:1012200014800A4002E008C8121F08C1002AFAD13F
:1012300070477047002001E001C1121F002AFBD156
:1012400070470000FEF7E6FF4FF4E13000F01AF8B7
:10125000FFF7C6F8FFF7ECF8FFF7BEFE0120FFF737
:1012600035FD064C012505480830FFF74DF900B95A
:1012700025700348FFF7E0FCF5E7000000000020C0
:10128000440000203EB50024054622464FF482412A
:1012900001231046FFF71EF8062204210020FEF766
:1012A00087FF062208210020FEF782FF0120ADF80B
:1012B0000400ADF80840ADF80640ADF80A408407D8
:1012C000009569462046FFF7E3FA012200212046F7
:1012D000FFF712FB012211462046FFF70DFB3EBD32
:1012E00005010906A101050719E029E715002501F7
:1012F00075019508810295017508810395037501B3
:1013000005081901290391029501750591039506B8
:101310007508150025650507190029658100C000BD
:1013200005010902A1010901A1000509190129030B
:10133000150025017501950381029501750581034D
:1013400005010930093109381581257F7508950394
:101350008106C0C01201100100000040D9040880BD
:10136000000101020301000009023B00020100A08C
:1013700032090400000103000000092110012101CD
:10138000223F000705810308000109040100010351
:101390000102010921100121012234000705830304
:1013A000100004000403090424034400470055000E
:1013B0005400200041006900720020004D006F00C1
:1013C000750073006500000000000B4000200B401A
:1013D00000400B4000600B4000800B403443101075
:1013E0000134431010010000081400000000002028
:1013F00044000000241200004C14000044000020AF
:10140000E4020000341200000000000001000000AF
:1014100000000000000000000000000001000000CB
:1014200001000000000000000000000000000000BB
:1014300000000000A4130000A8130000000000003A
:0C1440000000000000000000010000009F
:0400000500000155A1
:00000001FF
