:020000040000FA
:100000001002002055010000570B0000BB04000047
:10001000550B00008D030000C1100000FFFFFFFF23
:10002000FFFFFFFFFFFFFFFFFFFFFFFF590F000074
:1000300059040000FFFFFFFFD10D00005B0F00001F
:100040006F0100006F0100006F0100006F010000F0
:100050006F0100006F0100006F0100006F010000E0
:100060006F0100006F0100006F0100006F010000D0
:100070006F0100006F0100006F0100006F010000C0
:100080006F0100006F0100006F0100006F010000B0
:100090006F0100006F0100006F0100006F010000A0
:1000A0006F0100006F010000FFFFFFFF6F01000004
:1000B0006F0100006F0100006F0100006F01000080
:1000C0006F0100006F0100006F0100006F01000070
:1000D0006F010000FFFFFFFFFFFFFFFFFFFFFFFFBC
:1000E000FFFFFFFF6F0100006F0100006F010000C4
:1000F0006F0100006F0100006F0100006F01000040
:100100006F0100006F0100006F0100006F0100002F
:100110006F0100006F010000FFFFFFFF6F01000093
:100120006F0100006F0100006F0100006F0100000F
:100130006F0100006F0100006F010000FFFFFFFF73
:10014000FFFFFFFFFFFFFFFFFFFFFFFFFFFFFFFFBF
:100150006F0100000648804706480047FEE7FEE7BB
:10016000FEE7FEE7FEE7FEE7FEE7FEE7FEE7FEE767
:100170005D0F000079010000DFF80CD000F0B2F84C
:1001800000480047B1140000100200200EB5C10F56
:1001900080EAE0700844CA07002140F233438DE84A
:1001A0000E000A460B4600F04FF803B000BD0000F9
:1001B00030B5041E71F1000404DB4FF000444042EE
:1001C00064EB0101141E73F1000405DB1C464FF0C3
:1001D0000043524263EB0403994208BF904230BD92
:1001E00030B50B46014600202022012409E021FA07
:1001F00002F59D4205D303FA02F5491B04FA02F504
:100200002844151EA2F10102F1DC30BD202A04DBD6
:10021000203A00FA02F1002070479140C2F1200319
:1002200020FA03F319439040704710B5141E73F180
:10023000000408DA401C41F1000192185B411A43A6
:1002400001D120F0010010BD2DE9F04D92469B46F2
:1002500011B1B1FA81F202E0B0FA80F22032904698
:10026000FFF7D4FF04460F4640EA0A0041EA0B01BB
:1002700053465A46084313D0114653EA010019D099
:10028000C8F14002504600F03FF805460E46504681
:1002900059464246FFF7BAFF084305D0012004E063
:1002A00020463946BDE8F08D0020054346EAE07659
:1002B0002C4337430A986305E40AA0EB08000022A8
:1002C000FD0A44EA47540A3002D500200146E9E716
:1002D000010510196941DDE9084500196941BDE8CA
:1002E000F04DA2E7064C074D06E0E06840F0010340
:1002F00094E8070098471034AC42F6D3FFF740FF6C
:10030000DC160000FC160000202A04DB203A21FA4B
:1003100002F00021704721FA02F3D040C2F120021E
:1003200091400843194670472DE9F0479146164A17
:100330004FF0FF0A02EBC005002200240AFA02F087
:100340002346084219D04FF0010C00200CFA02FCA1
:100350004FF00F0821FA00F616EA0C0F06D08600BF
:1003600008FA06F73C4309FA06F73B43401C082805
:10037000F0D32868A0431843286008322D1D082AAE
:10038000DBDDBDE8F087000020200240FEE7000032
:1003900070B5124E0446706B850F00F023F8206094
:1003A000012D05D00E48022D02D0032D00D00020D3
:1003B0006060316AC840A0603168C1F3015120FA21
:1003C00001F1E160B16AC1F30241072902D0C840DE
:1003D000206170BD0621B0FBF1F0F9E70080084014
:1003E00000127A000C49D1F8A400002813D0086A42
:1003F0000A48D1F8FC1301290DD0094A9169C1F3CB
:10040000C55101B940219269C2F3415301229A407A
:10041000B0FBF2F0484370470000104300127A002E
:100420000080084000B585B06846FFF7B1FF02982C
:1004300005B000BDF0B5074F7C6AFD6A3E6B844392
:100440008D43964313B104430D4316437C62FD6212
:100450003E63F0BD008008407047002A026801D06A
:100460000A4300E08A4302607047002A426801D0D4
:100470000A4300E08A434260704742B1012A09D032
:1004800082688A438260C2688A43C2607047826819
:100490000A43F7E7C2680A43C26082688A438260FF
:1004A0007047C069084000D0012070474162704722
:1004B0000AB14162704781627047FEE770B5002261
:1004C0004FF4C0204FF480410123FFF7B3FF002217
:1004D00003210120FFF728FF002270210220FFF7EF
:1004E00023FF184C002201212046FFF7B6FF00220F
:1004F00002212046FFF7B1FF134D002210212846AC
:10050000FFF7ABFF002220212846FFF7A6FF0022BD
:1005100040212846FFF7A1FF002203212046FFF7D4
:10052000ACFF002270212846FFF7A7FF012203211C
:100530002046FFF79AFF2846BDE87040012270214F
:10054000FFF793BF00200B4000400B402DE9F04126
:100550003A4C012500B1257001B165702078384F03
:10056000384E4FF0000870B101213846FFF799FF6F
:1005700098B302213846FFF794FF70B3102130463C
:10058000FFF78FFF48B3607848B120213046FFF76E
:1005900088FFD0B340213046FFF783FFA8B3012185
:1005A0003846FFF77EFFA8B102213846FFF779FFF2
:1005B00080B110213046FFF774FF58B1202130463A
:1005C000FFF76FFF30B140213046FFF76AFF08B1F7
:1005D000257065700020BDE8F081FFE70A2000F07B
:1005E0004BFF84F8008001213846FFF75AFF68B1BD
:1005F00002213846FFF755FF50B110213046FFF772
:1006000050FF0028E6D10520E5E703E00120E2E7FE
:100610000220E0E7642000F02FFF84F80180202111
:100620003046FFF73EFF38B140213046FFF739FF33
:100630000028CFD10420CEE70320CCE7080000201B
:1006400000200B4000400B4070B54FF400300022FA
:10065000C1100123FFF7EEFE4FF47874002221460B
:100660000120FFF761FE064D012221462846FFF7D3
:10067000F4FE21462846BDE870400122FFF718BF6E
:1006800000200B401CB504466B460622432168201F
:1006900000F0D4F900280BD1BDF8001049BA218030
:1006A000BDF8021049BA6180BDF8041049BAA180B2
:1006B0001CBD000070B5114D4FF48054002221463E
:1006C0002846FFF7F5FE0122D60231462846FFF7FD
:1006D000C4FE002231462846FFF7EAFE00F010F87B
:1006E000012221462846FFF7E3FE00F009F82146E3
:1006F0002846BDE870400022FFF7DABE00400B40FC
:10070000022103E00A20401EC0B2FCD2491EC9B239
:10071000F8D2704770B500214FF4802001230A46BB
:10072000FFF788FE01220C4DD40221462846FFF730
:1007300094FE0122160331462846FFF78EFE012261
:1007400021462846FFF7B4FE31462846BDE87040F2
:100750000122FFF7ADBE000000400B4070B5114D07
:100760004FF48054002221462846FFF7A1FE0122C3
:10077000D60231462846FFF770FE01223146284650
:10078000FFF796FEFFF7BCFF012221462846FFF740
:100790008FFEFFF7B5FF21462846BDE870400022D6
:1007A000FFF786BE00400B402DE9F0471B4E804608
:1007B00000244FF40067224639463046FFF74DFECD
:1007C000012239463046FFF750FE0025B9467F002A
:1007D000002239463046FFF76BFEFFF791FF0122FA
:1007E00039463046FFF764FE6006040E494630463F
:1007F000FFF757FE08B1641CE4B2FFF781FF6D1CE0
:10080000EDB2082DE4D3B8F1000F04D0FFF752FF8A
:100810002046BDE8F087FFF7A1FFF9E700400B4055
:100820002DE9F0470122164E0546D70239463046DB
:10083000FFF713FE4FF48058002241463046FFF781
:1008400037FEB94600244746EA0949463046FFF7D5
:100850002FFE6806050E012239463046FFF728FEB6
:10086000FFF74EFF002239463046FFF721FEFFF723
:1008700047FF641CE4B2082CE6D3BDE8F087000013
:1008800000400B4070B50122104DD402214628468D
:10089000FFF7E3FD012221462846FFF709FE01226A
:1008A000160331462846FFF703FEFFF729FF002213
:1008B00021462846FFF7FCFDFFF722FF3146284678
:1008C000BDE870400022FFF7F3BD000000400B4080
:1008D00070B50122104DD40221462846FFF7BDFD18
:1008E0006600002231462846FFF7E2FD002221463D
:1008F0002846FFF7DDFDFFF703FF012231462846BA
:10090000FFF7D6FD012221462846FFF7D1FDBDE8BD
:100910007040FFF7F5BE000000400B402DE9F041AC
:10092000194E00244FF40065224629463046FFF751
:1009300094FD012229463046FFF797FD0122294602
:100940003046FFF7B5FDFFF7DBFE012217033946FE
:100950003046FFF7ADFDFFF7D3FE08E0641CE4B2BC
:10096000FA2C04D9FFF7B4FF0120BDE8F081294635
:100970003046FFF796FD0028F0D100223946304678
:10098000FFF796FD0020F0E700400B4010B5FFF7A1
:10099000C1FE80216B2000F0BFF8642000F06CFDE8
:1009A00000216B2000F0B8F8032000F081F800204F
:1009B00000F079F8322000F098F80021382000F09B
:1009C000ABF800216A2000F0A7F80021232000F0F6
:1009D000A3F88021372000F09FF8752000F011F86F
:1009E000682801D0012010BD01216B2000F094F88F
:1009F00000216C2000F090F8322000F076F8002002
:100A000010BD10B50446FFF73DFFD020FFF708FFEB
:100A1000FFF784FF2046FFF703FFFFF77FFFFFF795
:100A200031FFD120FFF7FCFEFFF778FF0020FFF732
:100A3000BBFE0446FFF74CFF204610BD2DE9F041F8
:100A40001C4615460F460646FFF71CFF7006000EB3
:100A5000FFF7E6FEFFF762FF20B1FFF739FF012045
:100A6000BDE8F0813846FFF7DBFEFFF757FFFFF7E1
:100A700009FF012000EB4600C0B2FFF7D1FEFFF7EF
:100A80004DFF08E0012D0CD00120FFF78DFE6D1EFB
:100A900004F8010BEDB2002DF4D1FFF719FF00208F
:100AA000DEE70020F1E7C006010E1C2000F034B89C
:100AB000C006010E1B2000F02FB8BC2801D3012175
:100AC00010E0622801D302210CE02A2801D303217F
:100AD00008E0142801D3042104E00A2801D30521E9
:100AE00000E006211A2000F017B810B504464FF4B4
:100AF0007A70844201D9044602E0042C00D2042416
:100B0000B0FBF4F0401EC1B2192000F005F86008F7
:100B1000BDE81040FFF7D1BF70B50C460546FFF7A2
:100B2000B1FED020FFF77CFEFFF7F8FE50B9284653
:100B3000FFF776FEFFF7F2FE2046FFF771FEFFF7A4
:100B4000EDFE18B1FFF7C4FE012070BDFFF7C0FE37
:100B5000002070BDFEE770471CB50FA00522D0E94C
:100B60000010CDE900106946302000F0F3F80522AE
:100B70006946102000F04EF8002069460A5CA52A5C
:100B800003D1401CC0B20528F8D3052801D00120AC
:100B90001CBD00201CBD0000A5A5A5A5A50000004A
:100BA00010B5074C10212046FFF77BFC012806D02A
:100BB00010212046FFF775FC002800D0002010BD52
:100BC00000200B4010B500214FF4003001230A46ED
:100BD000FFF730FC0E4C012204212046FFF73DFCBC
:100BE000002210212046FFF738FC00221421204665
:100BF000FFF75EFC00F0FEF8002204212046FFF71C
:100C000057FC20460122BDE810400821FFF750BCE8
:100C100000200B402DE9F041DFF83C8015460E46E0
:100C20000446002208214046FFF742FC204600F01F
:100C300027F90746002405E0FF2000F021F9305590
:100C4000641CE4B2AC42F7D3012208214046FFF70E
:100C50002FFC3846BDE8F08100200B4070B50A4CEF
:100C60000546002208212046FFF722FC284600F016
:100C700007F9FF2000F004F905460122082120466B
:100C8000FFF716FC284670BD00200B4010B5184C2D
:100C9000002204212046FFF70BFC052215493020D5
:100CA00000F058F813490522491D2A2000F052F897
:100CB0000121212000F072F80121222000F06EF8BD
:100CC0001A21242000F06AF82821252000F066F877
:100CD0002721262000F062F80E21202000F05EF887
:100CE00020460122BDE810400421FFF7E1BB0000CF
:100CF00000200B40D016000070B5154C05460022B0
:100D000004212046FFF7D4FB05222946A02000F04D
:100D100021F8012204212046FFF7CAFBFFF740FF1C
:100D20000028FBD10720FFF799FF04460146272042
:100D300000F034F8E00605D5FF21E12000F02EF8A0
:100D4000102070BDA00601D5202070BDFF2070BD11
:100D500000200B402DE9F041DFF83C8016460D469F
:100D60000446002208214046FFF7A2FB204600F07F
:100D700087F80746002405E015F8010B00F080F81D
:100D8000641CE4B2B442F7D3012208214046FFF7C5
:100D90008FFB3846BDE8F08100200B4070B50B4C4E
:100DA0000E460546002208212046FFF781FB284613
:100DB00000F066F80546304600F062F8012208218E
:100DC0002046FFF775FB284670BD000000200B4051
:100DD000704770B50446C1B24FF08045284600F018
:100DE00063F94021284600F01DF90028F9D020467B
:100DF00070BD000070B5002410258CB0680344F26B
:100E0000100101232246FFF715FB1C4E08217068D4
:100E1000FFF74CFB012208217068FFF71EFB05223B
:100E200010210020FFF780FA052220210020FFF783
:100E30007BFA052240210020FFF776FAA802CDE9CF
:100E400000040820CDE90204049407940594069454
:100E50000894CDE909454FF040246946204600F04A
:100E600047F80121204600F06BF80121204600F0F0
:100E70002EF8FF2000F004F80CB070BDBC16000086
:100E800070B5064600244FF0402503E0641CE4B230
:100E9000C82C0FD80221284600F023F80028F5D0EE
:100EA0003146284600F056F8002405E0641CE4B200
:100EB000C82C01D9002070BD0421284600F011F88B
:100EC0000028F3D0284600F038F8C0B270BD0029E1
:100ED000016802D041F0010101E021F0010101604F
:100EE00070470246002052690A4200D00120704734
:100EF00030B5D1E90543E4B14FF40072DA40224342
:100F00008C680B682343D1E903452C432343CC6908
:100F10002343134343604B6A4A681A430B6A42EA0D
:100F200003128261896A4FF0FF3202EB5101C16006
:100F300030BD4FF480729A40E2E7006980B270479A
:100F40000029016802D041F0080101E021F0080108
:100F500001607047016170477047704770B52B485A
:100F60001021C0F80C110121C0F80013284D296090
:100F7000284AD2F80831272BFBD1426A22F440627A
:100F80004262254AC2F8AC10D2F80C31002BFBD0DB
:100F9000436823F00703DB1C4360436BDB439B0F79
:100FA000FBD11E4CD4F8003223F007035B1CC4F8BD
:100FB000003200230362C2F8A4301162C2F8A81004
:100FC000D2F80861002EFBD02B6013624FF0106343
:100FD0008361C2F8A410D2F80431002BFBD0D4F8FE
:100FE000002222F00702D21CC4F8002201624268EB
:100FF00022F00302521C4260426BB1EB927FFBD1A4
:10100000074801610163C16170BD000000800840B4
:101010001806104300A006400000104300000840DE
:10102000004000430A0506D5806821F4006188422B
:1010300004D00020704780690840FBD00120704731
:1010400070B504460D46C8888988226908432989F5
:1010500022F01F02114308432061606A698920F071
:10106000030008436062B4F1804F0AD00B48844209
:1010700009D11A20FFF7D6F92968B0FBF1F0A06377
:1010800070BD1820F6E70648844201D11C20F1E724
:1010900004488442F4D11E20ECE700000000044024
:1010A0000010004000100440016070474FF480734E
:1010B0008B40C1680AB1194300E09943C160704791
:1010C000FEE700000FB4054B10B503A9044A0298CF
:1010D00000F018F810BC5DF814FB0000AD1400001F
:1010E0000400002002E008C8121F08C1002AFAD13B
:1010F00070477047002001E001C1121F002AFBD198
:10110000704700002DE9FF4F8BB08846054600264A
:1011100006E025280BD0DDE90D1290476D1C761CEA
:1011200028780028F5D10FB03046BDE8F08F0024B4
:10113000A146A2460122AE4900E0044315F8013F52
:10114000203B02FA03F00842F7D128782A2810D071
:101150006FF02F022878A0F13001092915D809EB8A
:10116000890102EB410144F0020400EB01096D1C0E
:10117000F0E758F8041B5FEA010903D544F4005472
:10118000C9F1000944F002046D1C28782E2817D1FB
:1011900015F8010F44F004042A280ED06FF02F0236
:1011A0002878A0F1300109290AD80AEB8A0102EB5C
:1011B000410100EB010A6D1CF2E758F804AB6D1C0D
:1011C00028786C280FD006DC4C2817D068280DD062
:1011D0006A2814D104E0742810D07A280FD10DE0C9
:1011E00044F400140AE044F4801401E044F4401490
:1011F0006978814202D104F580146D1C6D1C287839
:10120000692865D006DC00288DD0632827D06428A3
:1012100006D15DE06E2808D073282AD0752877D0D3
:10122000DDE90D129047761CE0E0C4F3025002287D
:1012300009D003280DD0D8F8001004280DD00E6076
:1012400008F10408D2E0D8F80010F217C1E90062F2
:10125000F6E7D8F800100E80F2E70E70F0E718F805
:10126000041B8DF8001000208DF80100EB460120D2
:1012700003E058F804BB4FF0FF3061074FF0000760
:1012800001D40AE07F1C57450DDA8742FADB1BF8D0
:1012900007100029F6D106E07F1C8742FCDB1BF813
:1012A00007100029F8D1DDE90D23A9EB07008146DD
:1012B000214600F0B1F83044C61904E0DDE90D1212
:1012C0001BF8010B90477F1EF8D22146484688E064
:1012D00058F8040BC4F302514FF00A0B032900D154
:1012E00000B2042900D140B2002802DA40422D2188
:1012F00002E0210505D52B218DF82410012104E001
:1013000006E0E10710D02021F6E708AF089113E0CE
:1013100058F8040BC4F302514FF00A0B032900D113
:1013200080B2042900D1C0B20021EEE75946FEF791
:1013300057FF303107F8011D0028F7D1ADEB07004A
:1013400000F1200B600702D524F4803401E04FF057
:10135000010ADA4502DDAAEB0B0000E0002082461C
:1013600000EB0B0108980144A9EB01000A90E0038F
:1013700006D4DDE90D2321460A9800F04DF8064415
:101380004FF0000908E009A911F80900DDE90D1284
:10139000904709F10109761C08998945F3DBE003C0
:1013A0000CD5DDE90D2321460A9800F035F80644F6
:1013B00004E0DDE90D1230209047761CBAF10001FF
:1013C000AAF1010AF5DC05E0DDE90D1217F8010BC1
:1013D0009047761CBBF10001ABF1010BF4DC0A98DD
:1013E0002146DDE90D2300F005F806446D1C97E663
:1013F000092801002DE9F041044600251E46174644
:10140000880404D405E039462020B0476D1C641ED2
:10141000F9D52846BDE8F0812DE9F04104460025C4
:101420001E469046C80301D5302700E020278804D7
:1014300004D505E041463846B0476D1C641EF9D519
:101440002846BDE8F0810000084800680849B0FB64
:10145000F1F00849C0B200EB40020870C2EBC010C6
:101460004FF6FF7202EAC00048807047000000207B
:1014700000127A000A0000200B49498848434FF0C7
:10148000E021486100238B61086940F00100086198
:101490000869C20701D0C003FAD5086920F001002D
:1014A00008618B61704700000A000020FFF791BCC3
:1014B00088B0FFF703F8FFF7C7F84FF4E13000F00A
:1014C000CFF8FFF7C1FF02E055A0FFF7FBFDFFF7E4
:1014D0005DFA0028F8D1FFF775FB05E053A0FFF790
:1014E000F1FDC820FFF7C8FFFFF736FB0028F5D154
:1014F00052A0FFF7E7FDFFF7C9FB4FF47A69012619
:10150000514F0F250DF10C08C9F1000A00240020ED
:1015100041460C54401C0628FBD305A8FFF7B2F83F
:10152000BDF91800484501DD4F200CE0504501DAB7
:10153000502008E0BDF91400484501DD512002E0CB
:10154000504507DA52208DF80D408DF810008DF8C7
:101550000E4001E08DF8104001210846FEF7F6FF2D
:10156000012808D0022809D003280BD004280CD069
:1015700005280ED010E08DF80C600DE002208DF8EB
:101580000C0009E08DF80F6006E0FF208DF80F00D9
:1015900002E046208DF81000BDF9180090FBF5F030
:1015A000FEF7F4FD21F0004100223B46FEF700FE6D
:1015B00006D8BDF9180090FBF5F08DF80D0001E09C
:1015C0008DF80D40BDF9140090FBF5F0FE38FEF7E4
:1015D000DDFD21F0004100223B46FEF7E9FD07D882
:1015E000BDF9140090FBF5F0801C8DF80E0001E0B1
:1015F0008DF80E4003A8FFF77FFBBDF918109DF88A
:101600000F00CDE900019DF80C309DF80E209DF8EB
:101610000D100EA0FFF756FD1420FFF72DFF76E703
:101620006D7075B3C9B9A60D0A000000CEB4BCEC4C
:10163000B2E2B5BD32346C30310D0A006E7266B361
:10164000C9B9A60A0000000000002C402538642516
:1016500038642538642538642538640D0A00000094
:101660003EB50024054622464FF482410123104630
:10167000FEF7E0FE062204210020FEF755FE0622BA
:1016800008210020FEF750FE0120ADF80400ADF85F
:101690000840ADF80640ADF80A4084070095694659
:1016A0002046FFF7CDFC012200212046FFF7FEFC7B
:1016B000012211462046FFF7F9FC3EBD00000B4019
:1016C00000200B4000400B4000600B4000800B40AE
:1016D000344310100134431010010000FC160000C8
:1016E0000000002010000000E41000000C170000B3
:1016F0001000002000020000F410000000A24A04C4
:0C170000000000000101000000000000DB
:0400000500000155A1
:00000001FF
