:020000040800F2
:10000000A0080020910A00084D0200084F020008D5
:1000100053020008570200085B02000800000000BD
:100020000000000000000000000000005F02000867
:100030006102000800000000630200086502000879
:10004000AB0A0008AB0A0008AB0A0008AB0A0008BC
:10005000AB0A0008AB0A0008AB0A0008AB0A0008AC
:10006000AB0A0008AB0A0008AB0A0008AB0A00089C
:10007000AB0A0008AB0A0008AB0A0008AB0A00088C
:10008000AB0A0008AB0A0008AB0A0008AB0A00087C
:1000900069020008AB0A0008AB0A0008AB0A0008B6
:1000A000AB0A0008AB0A0008AB0A0008AB0A00085C
:1000B000AB0A0008AB0A0008AB0A0008AB0A00084C
:1000C000AB0A0008AB0A0008AB0A0008AB0A00083C
:1000D000AB0A0008070A0008AB0A0008AB0A0008D0
:1000E000AB0A0008AB0A00087102000800F002F831
:1000F00000F05AF80AA090E8000C82448344AAF168
:100100000107DA4501D100F04FF8AFF2090EBAE865
:100110000F0013F0010F18BFFB1A43F0010318473B
:100120001C3900003C3900000A444FF0000C10F864
:10013000013B13F0070408BF10F8014B1D1108BF65
:1001400010F8015B641E05D010F8016B641E01F805
:10015000016BF9D113F0080F1EBF10F8014BAD1C55
:100160000C1B09D16D1E58BF01F801CBFAD505E073
:1001700014F8016B01F8016B6D1EF9D59142D6D3CD
:10018000704700000023002400250026103A28BFF5
:1001900078C1FBD8520728BF30C148BF0B607047F9
:1001A0001FB51FBD10B510BD03F08FFB1146FFF743
:1001B000F7FF00F00FF803F0ADFB03B4FFF7F2FF19
:1001C00003BC00F0C5FB02468A4201D9501A7047B1
:1001D000881AFCE70EB500200190029000F048FB61
:1001E0000A2000F082FB00F0ADFB0A2000F07DFB4E
:1001F00000F034F90A2000F078FB02E00A2000F059
:1002000074FB00F0BAF90028F8D100F04DFA03F0C1
:100210001FF803F005F802F0F1F916E001A800F06C
:1002200026FA78B90A2000F060FB9DF808000090DB
:100230009DF807309DF806209DF805109DF80400F4
:1002400003F034F80A2000F050FBE7E7704700BFE6
:10025000FEE700BFFEE700BFFEE700BFFEE7704716
:10026000704770477047704710B503F0C3F810BD72
:1002700010B54FF4802001F0A2FA10BD0CB500209B
:10028000019000906C48006840F480306A49086032
:1002900000BF6948006800F4003000900198401CDD
:1002A0000190009818B90198B0F5A06FF1D162489B
:1002B000006800F4003010B10120009001E000203F
:1002C00000900098012843D15C48006840F010007D
:1002D0005A4908600846006820F003000860084694
:1002E000006840F002000860534840685249486086
:1002F0000846406848600846406840F480604860AE
:100300000846406820F47C1048600846406840F485
:10031000E81048600846006840F08070086000BF40
:100320004548006800F000700028F9D04248406855
:1003300020F00300404948600846406840F0020051
:10034000486000BF3C48406800F00C000828F9D124
:100350000CBD10B5FFF792FF10BD10B53648006810
:1003600040F00100344908600846406834490840BC
:100370003149486008460068324908402E49086003
:100380000846006820F4802008600846406820F491
:10039000FE0048604FF41F008860FFF7DAFF4FF05F
:1003A00000602949086010BD10B50021002000221E
:1003B000214B5B6803F00C0121B1042906D0082908
:1003C00028D107E0214B224C236027E01F4B204C13
:1003D000236023E0184B5B6803F47010164B5B68D6
:1003E00003F48032022303EB904022B9194B4343BC
:1003F000174C23600DE0104B5B6803F4003323B10E
:10040000144B4343124C236003E0104B4343104C06
:10041000236003E00D4B0E4C236000BF00BF064B72
:100420005B68C3F303130C4CE15C094B1B68CB40C6
:10043000074C236010BD0000001002400020024065
:100440000000FFF8FFFFF6FE08ED00E000127A0062
:100450000000002000093D000400002000B587B026
:1004600001210C2000F0BEFE1420ADF81800102071
:100470008DF81B0003208DF81A0006A9B34800F080
:10048000F5FB0820ADF8180028208DF81B0006A900
:10049000AE4800F0EBFB1C21AC4800F096FC00F0ED
:1004A0008CF90021AA4801F05EFA0020ADF80400A2
:1004B0004FF48270ADF806000020ADF80800ADF8EA
:1004C0000A00ADF80C004FF40070ADF80E001820D3
:1004D000ADF810000020ADF812000720ADF81400B0
:1004E00001A99B4801F09AF90121994801F03BFAD2
:1004F00000209849086001209749C1F8880107B099
:1005000000BD2DE9F04107460D46164600209149F1
:1005100008390860384600F029F98046002405E0D3
:10052000FF2000F023F92855601CC4B2B442F7DB69
:1005300001208849083908604046BDE8F0812DE96E
:10054000F04107460C4615460020824908390860EC
:10055000384600F00BF98046002605E014F8010B40
:1005600000F004F9701CC6B2AE42F7DB01207949F5
:10057000083908604046BDE8F0811CB577A103C981
:10058000CDE90001082000F05CF905226946302021
:10059000FFF7D5FF052269461020FFF7B2FF0024C0
:1005A00006E01DF80400A52800D003E0601CC4B2DA
:1005B000052CF6DB00BF052C01D001201CBD00205E
:1005C000FCE770B505460C46002062490839086012
:1005D000284600F0CBF80646204600F0C7F8012078
:1005E0005D49C1F88801304670BD70B504460020F1
:1005F000584908390860204600F0B8F8FF2000F09C
:10060000B5F8054601205449C1F88801284670BD57
:1006100070B50546102000F014F900204D4908601F
:1006200005222946A020FFF78AFF01204A49C1F888
:10063000900100BF4748843800680028FAD107209D
:10064000FFF7D3FF044621462720FFF7BAFF04F047
:10065000100028B1FF21E120FFF7B3FF102070BD8B
:1006600004F0200008B12020F9E7FF20F7E770B57B
:100670000446102000F0E5F80720FFF7B6FF054616
:1006800029462720FFF79DFF05F0400050B10522C5
:1006900021466120FFF735FFFF21E220FFF791FFA0
:1006A000002070BD0120FCE710B50020294908603A
:1006B00005222C492A20FFF742FF01212120FFF7C4
:1006C00080FF01212220FFF77CFF28212520FFF752
:1006D00078FF05213120FFF774FF27212620FFF73F
:1006E00070FF0F212020FFF76CFF01201A49C1F88D
:1006F000900110BD10B500201649086005221A4966
:100700003020FFF71CFF052216492A20FFF717FFAC
:1007100001212120FFF755FF01212220FFF751FF82
:100720001A212420FFF74DFF28212520FFF749FF3C
:1007300027212620FFF745FF0E212020FFF741FF4C
:1007400001200549C1F8900110BD000000080140DA
:10075000003001409001214200002142A5A5A5A53D
:10076000A50000002D3900082839000870B505469D
:10077000002405E0601CC4B2C82C01DD002070BD5F
:100780000221394801F073F90028F3D02946364890
:1007900001F01AF9002405E0601CC4B2C82C01DD88
:1007A0000020ECE70121304801F061F90028F3D086
:1007B0002D4801F00BF9C0B2E1E700B587B0012187
:1007C000082000F00FFD0121080300F00BFDE020E0
:1007D000ADF8180018208DF81B0003208DF81A00C2
:1007E00006A9224800F042FAE021204800F0EBFA86
:1007F0000020ADF804004FF48270ADF80600002030
:10080000ADF808000220ADF80A000120ADF80C0098
:100810004002ADF80E003820ADF810000020ADF811
:1008200012000720ADF8140001A90F4800F0F6FFF0
:1008300001210D4801F097F8FF20FFF797FF07B05F
:1008400000BD10B50446084800884FF6C77108403F
:100850000549088008460088204308800121024895
:1008600001F081F810BD0000003001400008014097
:1008700010B56FF0040000F07AF92E4800682E4998
:10088000B0FBF1F02D4908700846007800EB4001FC
:10089000C1EBC0104FF6FF7101EAC0002849088083
:1008A00010BD0146254A12784A434FF0E0235A61B1
:1008B00000229A611A46126942F001021A6100BFD1
:1008C0004FF0E022106900F001021AB100F480320A
:1008D000002AF5D04FF0E022126922F001024FF019
:1008E000E0231A6100229A6170470146144A128877
:1008F0004A434FF0E0235A6100229A611A46126976
:1009000042F001021A6100BF4FF0E022106900F0CE
:1009100001021AB100F48032002AF5D04FF0E02233
:10092000126922F001024FF0E0231A6100229A615D
:10093000704700000000002000127A001400002020
:100940001600002010B54FF4A06000F0C1F810BDF3
:10095000014600BF704700BF494A128802F04002BA
:10096000002AF9D0C2B2464B1B1D1A80704710B541
:1009700086B00446012144F2040000F033FC4FF439
:100980000070ADF8140003208DF8160018208DF8C3
:10099000170005A93B4800F069F94FF48060ADF8F5
:1009A000140004208DF8170005A9364800F05EF900
:1009B00025208DF8000003208DF801008DF802003D
:1009C00001208DF80300684600F087F801940020AC
:1009D000ADF80800ADF80A00ADF80C00ADF8100055
:1009E0000C20ADF80E0001A9254800F0A2FC012260
:1009F00040F22551224800F034FD0121204800F04A
:100A000024FD06B010BD10B540F225511C4800F081
:100A10000DFE10B31A4800F089FDC4B21A480088D0
:100A200000F40040C8B91848008800F4804060B164
:100A30000A2C03D000201449088020E012480088C6
:100A400040F400401049088019E00D2C06D10E48F2
:100A5000008840F480400C49088010E00A48008873
:100A6000C0F30D0009490C5407480088401C064992
:100A7000088008460088C72801DD0020088010BDD6
:100A800000380140000801401C0000205C010020EB
:100A90000948804709480047FEE7FEE7FEE7FEE712
:100AA000FEE7FEE7FEE7FEE7FEE7FEE7044805494E
:100AB000054A064B704700005B030008ED00000884
:100AC000A0020020A0080020A0040020A004002014
:100AD00031490143314A1160704770B5002100234C
:100AE0000F22C47804B32D4C246804F4E064C4F5E8
:100AF000E064210AC1F10403CA40447804FA03F116
:100B00008478144021430901254C0678A1550478C6
:100B100004F01F050124AC4005786D11AD0005F10E
:100B2000E025C5F8004109E0047804F01F05012420
:100B3000AC401C4D0678761145F8264070BD1A4A27
:100B40000A400243154B1B1F1A60704739B1134A04
:100B5000121D12680243114B1B1D1A6006E00F4A5A
:100B6000121D126882430D4B1B1D1A60704704282A
:100B700008D14FF0E021096941F004014FF0E02273
:100B8000116107E04FF0E021096921F004014FF005
:100B9000E0221161704700000000FA050CED00E052
:100BA00000E400E080E100E080FFFF1F10B5044694
:100BB000CC48844208D10121042000F02DFB002103
:100BC000042000F029FB46E0C748844208D10121F7
:100BD000082000F021FB0021082000F01DFB3AE076
:100BE000C248844208D10121102000F015FB0021E9
:100BF000102000F011FB2EE0BD48844208D10121F5
:100C0000202000F009FB0021202000F005FB22E05D
:100C1000B848844208D10121402000F0FDFA0021AB
:100C2000402000F0F9FA16E0B348844208D10121CF
:100C3000802000F0F1FA0021802000F0EDFA0AE0B7
:100C4000AE48844207D10121801500F0E5FA002169
:100C5000A01500F0E1FA10BD10B50121084600F022
:100C6000DBFA0021012000F0D7FA10BD2DE9F04198
:100C7000024600250026002000230024002791F8CA
:100C800003C00CF00F0591F803C00CF0100CBCF180
:100C9000000F03D091F802C04CEA050591F800C09E
:100CA000BCF1000F31D0146800202BE04FF0010C94
:100CB0000CFA00F3B1F800C00CEA03069E4220D102
:100CC00083004FF00F0C0CFA03F7BC4305FA03FC4A
:100CD0004CEA040491F803C0BCF1280F06D14FF090
:100CE000010C0CFA00FCC2F814C00AE091F803C031
:100CF000BCF1480F05D14FF0010C0CFA00FCC2F812
:100D000010C0401C0828D1D31460B1F800C0BCF159
:100D1000FF0F34DD546800202EE000F1080C4FF086
:100D2000010808FA0CF3B1F800C00CEA03069E4271
:100D300021D183004FF00F0C0CFA03F7BC4305FAE6
:100D400003FC4CEA040491F803C0BCF1280F05D160
:100D500000F1080C08FA0CF8C2F8148091F803C0EE
:100D6000BCF1480F07D100F1080C4FF0010808FA58
:100D70000CF8C2F81080401C0828CED35460BDE89F
:100D8000F0814FF6FF710180022181700421C17052
:100D900070470246002093680B400BB1012000E031
:100DA000002070470146886880B2704702460020E4
:100DB000D3680B400BB1012000E0002070470146D2
:100DC000C86880B2704701617047416170470AB1DD
:100DD000016100E041617047C16070474FF48032AB
:100DE0000A43826181618261826982697047024639
:100DF0000020434B18684FF68073184040EA0210F9
:100E000008433F4B186070473E49C8617047F0B5D2
:100E10000A46002300240021002500F00046B6F118
:100E2000004F02D1364EF16901E0354E7168C0F3D2
:100E3000034583B200F44016B6F5401F08D121F0F7
:100E400070612F4E766826F070662D4F7E6012E03E
:100E500000F48016B6F5801F06D1032606FA05F4C5
:100E6000A14341F0706106E0460D360103FA06F633
:100E7000B14341F0706122B1460D360103FA06F626
:100E8000314300F00046B6F1004F02D11C4EF16133
:100E900001E01B4E7160F0BD30B500228B071C0FC6
:100EA0000F2303FA04F2164B08338C1053F8243046
:100EB0009343134C08348D1044F8253023468C108E
:100EC00053F824308C07240F00FA04F423430C4C0D
:100ED00008348D1044F8253030BD0A49DC310860F3
:100EE0007047000000080140000C01400010014064
:100EF0000014014000180140001C01400020014086
:100F00000000014000002042DF48006840F001007E
:100F1000DD49086008464068DC490840DA49486015
:100F200008460068DA490840D74908600846006862
:100F300020F4802008600846406820F4FE004860E5
:100F40004FF41F0088607047CF49096821F4803151
:100F5000CD4A11601146096821F480211160B0F575
:100F6000803F03D0B0F5802F0ED106E0C649096856
:100F700041F48031C44A116007E0C349096841F473
:100F8000A021C14A116000E000BF00BF704710B54A
:100F900001460022002300204A11012A02D1BA4C46
:100FA000236806E0022A02D1B74C236A01E0B64C5E
:100FB000636A01F01F02012494401C400CB101201F
:100FC00000E0002010BD38B500200090002400256E
:100FD00000BF3120FFF7DBFF05460098401C009062
:100FE0000098B0F5A06F01D0002DF2D03120FFF7AE
:100FF000CEFF08B1012400E00024204638BD0146A0
:101000000020A14A106820F0F80040EAC1001060FA
:101010007047A04908607047024600209A4B586804
:1010200020F47C1042EA01031843974B5860704744
:1010300098490866704701460020934A506820F09E
:1010400003000843506070478F48406800F00C0070
:101050007047014600208C4A506820F0F000084399
:101060005060704701460020874A506820F4E060D5
:1010700008435060704701460020834A506820F4BE
:10108000605040EAC1005060704729B17E4A527AF0
:1010900002437D4B5A7204E07B4A527A82437A4B78
:1010A0005A7270477B49D83108607047014600206A
:1010B000754A506820F44040084350607047002152
:1010C000714A20321170704A82F82010012802D033
:1010D00004280AD104E001216B4A2032117005E096
:1010E0000521694A2032117000E000BF00BF70473F
:1010F0006949086070476449096A0143624A11629C
:101100007047654944390860704730B500210022B6
:10111000002400235C4D6D6805F00C0121B1042909
:1011200005D0082923D105E05C4D056022E05B4D28
:1011300005601FE0544D6D6805F47012524D6D68E6
:1011400005F48034022505EB92421CB9544D5543F9
:1011500005600BE04C4D6D6805F400351DB1504D38
:101160005543056002E04D4D5543056002E04B4D8F
:10117000056000BF00BF444D6D6805F0F00109092E
:10118000484D6B5C0568DD4045603F4D6D6805F47A
:10119000E061090A434D6B5C4568DD4085603A4D6E
:1011A0006D6805F46051C90A3E4D6B5C4568DD40D1
:1011B000C560354D6D6805F44041890B3A4D6B5C57
:1011C000C568B5FBF3F5056130BD29B12E4A5269FA
:1011D00002432D4B5A6104E02B4A526982432A4B49
:1011E0005A61704729B1284A92690243264B9A6195
:1011F00004E0254A92698243234B9A61704729B1E2
:10120000214AD2690243204BDA6104E01E4AD269C6
:1012100082431D4BDA61704729B11B4AD2680243F1
:10122000194BDA6004E0184AD2688243164BDA6040
:10123000704729B1144A12690243134B1A6104E042
:10124000114A12698243104B1A61704712494039A2
:10125000086070470F49C86470470B49C8717047F0
:101260000948406A40F0807007494862704701466B
:101270000020054A92680A400AB1012000E00020DF
:101280007047014988727047001002400000FFF863
:10129000FFFFF6FE000042428004424200127A0044
:1012A00000093D001E0000202E00002010B504465D
:1012B000FB48844209D101218803FFF7ADFF0021DB
:1012C0004FF48040FFF7A8FF32E0F648844209D18E
:1012D00001214804FFF7ADFF00214FF40030FFF774
:1012E000A8FF25E0F048844209D101218804FFF7D6
:1012F000A0FF00214FF48020FFF79BFF18E0EB4890
:10130000844209D10121C804FFF793FF00214FF463
:101310000020FFF78EFF0BE0E548844208D1012151
:101320000805FFF786FF00214FF48010FFF781FFCB
:1013300010BD2DE9F04786B005460E460024A246B2
:1013400000BFA1460027B08900B100BF2F462C8AFC
:101350004CF6FF700440F08804432C82AC894EF6B2
:10136000F3100440B088318908437189084304436D
:10137000AC81AC8A4FF6FF400440B0890443AC8294
:1013800001A8FFF7C2FEC648874202D1DDF810A0CF
:1013900001E0DDF80CA0A88900F4004040B10AEBA0
:1013A000CA0000EB0A1031684900B0FBF1F807E011
:1013B0000AEBCA0000EB0A1031688900B0FBF1F8B3
:1013C0006420B8FBF0F004012009642101FB1089BE
:1013D000A88900F4004040B1322000EBC900B0FB06
:1013E000F1F000F00700044308E0322000EB0910A0
:1013F0006421B0FBF1F000F00F0004432C8106B033
:10140000BDE8F0874FF41651016000218180C18052
:1014100001810C21418100218181704710B5024674
:101420000020108A4FF2FF0318400B884C8823439A
:101430008C882343CC8823431843108210BD00219D
:10144000018041808180C180704721B1828942F44E
:101450000052828104E082894DF6FF731A40828136
:101460007047F0B50346002400260025002040F612
:101470006A17B94200D100BF1846C1F3421401F007
:101480001F06012707FA06F5012C01D10C3004E0F4
:10149000022C01D1103000E014301AB107682F433C
:1014A000076002E00768AF430760F0BD1AB1838AA6
:1014B0000B43838202E0838A8B4383827047028AD4
:1014C0004FF6F0731A400282028A0A430282704782
:1014D00082894FF2FF731A40828182890A43828196
:1014E000704721B1828942F00202828104E0828940
:1014F0004FF6FD731A4082817047028A4FF6DF7300
:101500001A400282028A0A430282704721B1028A8B
:1015100042F48042028204E0028A4BF6FF731A40D2
:1015200002827047C1F308028280704701468888B2
:10153000C0F308007047818941F001018181704743
:10154000028BD2B20283028B42EA012202837047ED
:10155000028B02F47F420283028B0A4302837047AC
:1015600021B1828A42F02002828204E0828A4FF610
:10157000DF731A408282704721B1828A42F01002E2
:10158000828204E0828A4FF6EF731A4082827047AB
:1015900021B1828A42F00802828204E0828A4FF6F8
:1015A000F7731A408282704721B1828942F4004267
:1015B000828103E08289C2F30E028281704721B1E9
:1015C000828A42F40062828204E0828A4FF2FF73D0
:1015D0001A4082827047828A4FF6FB731A408282D9
:1015E000828A0A438282704721B1828A42F00202D3
:1015F000828204E0828A4FF6FD731A40828270472D
:1016000002460020B1F5007F00D100BF13880B40D7
:101610000BB1012000E00020704701F40072B2F528
:10162000007F00D100BFCA430280704770B50246F8
:10163000002400230025002040F66A16B14200D1A4
:1016400000BFC1F3421501F01F03012606FA03F3A0
:10165000012D02D19689334006E0022D02D1168A6F
:10166000334001E0968A33400C12012606FA04F456
:101670001688344013B10CB1012000E0002070BD89
:1016800010B50022002340F66A14A14200D100BF29
:101690000A1201249440A3B2DC43048010BD000070
:1016A000003801400044004000480040004C004029
:1016B00000500040002044490860091D0860091DD1
:1016C0000860091D086041483F49143108607047AF
:1016D00000213D498279002A3AD00A4612680368FF
:1016E0009A430B461A600A1D126803689A430B1D41
:1016F0001A60027911440A6803681A430A60324A80
:101700000832126803689A432F4B08331A601A1D77
:10171000126803689A432C4B0C331A604279102AE2
:101720000ED11A1F126803681A43274B08331A6038
:101730001A1D126803681A43234B0C331A600DE01C
:101740002149427911440A6803681A430A6005E096
:10175000027911440A6803689A430A6070470021BD
:10176000016001710C21417100218171704716499E
:10177000103109680143144A103211607047014664
:101780000020114A143212680A400AB1012000E018
:10179000002070470C491431086070470146002052
:1017A0000022094B1B6803EA0102074B14331B6834
:1017B0000B4013B10AB1012000E00020704702493C
:1017C000143108607047000000040140FFFF0F0063
:1017D00010B50446BE48844208D101218014FFF7A9
:1017E0001BFD0021A014FFF717FD16E0B948844245
:1017F00008D101210014FFF71CFD00212014FFF780
:1018000018FD0AE0B448844207D10121C013FFF754
:1018100010FD0021E013FFF70CFD10BD10B50022F4
:10182000028802F441520B884C8823438C8823435E
:10183000CC8823430C8923434C8923438C8923433D
:10184000CC8923431A430280838B4FF2FF742340D9
:1018500083830B8A038210BD2DE9F04F85B00546C6
:101860000C464FF0000902274FF000084FF0010B23
:101870000026B246A88B4FF240010840A883022000
:101880002884B5F81C90A068022801D100BF38E078
:10189000A08810B94FF0010B01E04FF0020B8D480A
:1018A000854200D100E000BF6846FFF72EFCDDF85E
:1018B00000A0E088B0F5007F0AD14FEA1A2000EBC3
:1018C00080004000A168B0FBF1F0401D86B20BE043
:1018D0004FEA4B10BAFBF0F000EB80004000A1682B
:1018E000B0FBF1F0401D86B20A20B6FBF0F606F020
:1018F0000108A6EB0800C0F34F074FF6FF7000EA9F
:101900000828022F01DBFF2F02DD02274FF000081D
:10191000E08840EA080038432884A088A189084369
:10192000618808432188084340F4006040EA0909BF
:10193000A5F81C9005B0BDE8F08F00210180418022
:101940008180C180018141818181C1810721018222
:1019500070470021018041808180C1800221816027
:1019600000218181704721B1028842F0400202804B
:1019700004E002884FF6BF731A400280704721B11D
:10198000828B42F48062828304E0828B4FF6FF33C5
:101990001A408283704730B5002400230C110125C2
:1019A000A540ABB21AB185881D43858002E08588C9
:1019B0009D43858030BD1AB183880B43838002E04C
:1019C00083888B4383807047818170470146888973
:1019D00070474FF6FF62914204D0028842F4807251
:1019E000028004E002884FF6FF631A4002807047CD
:1019F00021B1828842F00402828004E082884FF69E
:101A0000FB731A408280704702884FF2FF731A40BE
:101A1000028002880A4302807047018841F48051A5
:101A20000180704721B1028842F40052028004E034
:101A300002884DF6FF731A4002807047024600206C
:101A4000012901D0108B00E0908A70470146088A76
:101A50007047B1F5804F04D1028842F48042028081
:101A600004E002884BF6FF731A400280704702467A
:101A7000002013890B400BB1012000E000207047CB
:101A8000CA4302817047F0B50246002000240023BB
:101A9000002501F00F070126BE40B4B20B1101264C
:101AA0009E40B3B2968806EA03051689264016B111
:101AB0000DB1012000E00020F0BD10B5002201F0C2
:101AC0000F040123A3409AB2D343038110BD000049
:101AD0000030014000380040003C004010B5044692
:101AE0002CB90120F94909680882002010BDF84985
:101AF000096808688047F54800680A30F6E710B5BD
:101B0000F2480068C078F3494978884213DCEF480E
:101B10000068807878B9ED480068808858B9EB484B
:101B20000068C078E94909688872E9490968486825
:101B30008047002010BD0220FCE710B504462CB9F8
:101B40000120E24909680882002010BDE0490968C7
:101B500088688047DD4800680C30F6E710B5DB4B3D
:101B60001B68D978D94B1B685879DB4B1B689A697D
:101B700090470446D5480068807AE8B13CB9D3481C
:101B80000068007918B9D1480068807808B102204F
:101B900010BD8CB9CE490968C8688047CB48006839
:101BA0004079CA490968C872C8480068C078C749FE
:101BB000096808730020EBE70220E9E710B5044646
:101BC0002CB90220C14909680882002010BD0020FC
:101BD000C2490880BD480068007800F07F00E0B985
:101BE000BA490968487A00F0200129B1BB4909784F
:101BF00041F00201B94A117000F0400131B1B7491A
:101C0000097801F0FE01B54A117005E0B349097881
:101C100041F00101B14A11703AE0AC480068007827
:101C200000F07F00012801D1AC48CFE7A748006849
:101C3000007800F07F00022828D1A44A1268517968
:101C400001F00F0001F080027AB1A54B03EB800296
:101C5000D2F8002C02F03002102A16D19F4A1278D6
:101C600042F001029D4B1A700FE09D4B03EB800286
:101C7000D2F8002C02F44052B2F5805F05D1974AA9
:101C8000127842F00102954B1A7001E000209DE7A6
:101C90008F49096808698047904897E72DE9F04720
:101CA0008A480068007800F07F08B8F1000F0AD178
:101CB00086480068407A00F0DF008449096848726D
:101CC0000020BDE8F087B8F1020F7DD17F480068A1
:101CD000408818B97D480068007908B10220F0E713
:101CE000DFF8F09179480068477927F080052C46A5
:101CF00076480068407900F0800038B1784901EBFF
:101D00008400D0F8000C00F0300606E0744901EBC6
:101D10008400D0F8000C00F4405699F80000A84266
:101D200004D91EB169480068807A08B90220C8E762
:101D300007F0800080B16A4901EB8400D0F8000C04
:101D400000F03000102843D1E0B201F031F8E0B2E9
:101D5000302100F0DAFE3BE0614901EB8400D0F86D
:101D6000000C00F44050B0F5805F31D1C4B95D4A39
:101D700092F82C10E0B201F0A6F8594A02EB840167
:101D8000D1F8001C4BF68F7201EA020080F48050FB
:101D900080F40050524A02EB8401C1F8000C17E0B5
:101DA000E0B200F0EEFF4E4A02EB8401D1F8001CD5
:101DB0004BF68F7201EA020080F4805080F40050EC
:101DC000474A02EB840100E008E0C1F8000C00BFC4
:101DD0003F49096848698047002072E700BF022038
:101DE0006FE72DE9F04139480068467926F0800711
:101DF0003C4636480068407900F0800038B13849E8
:101E000001EB8400D0F8000C00F0300506E0344906
:101E100001EB8400D0F8000C00F440552D48007808
:101E2000A04208D929480068408820B91DB1274838
:101E30000068807A10B90220BDE8F08106F08000C9
:101E400080B1274A02EB8401D1F8001C48F6BF722A
:101E500001EA020080F01000214A02EB8401C1F87F
:101E6000000C10E01E4A02EB8401D1F8001C4BF676
:101E70008F7201EA020080F48050194A02EB84015B
:101E8000C1F8000C00BF124909688869804700202A
:101E9000D2E710B50D480068407A40F020000B49A9
:101EA000096848720A490968C8698047002010BD5E
:101EB00010B5024605480068438AAAB98888C01A46
:101EC000024C24682082002010BD00003C0000204D
:101ED00048000020AC00002040000020320000201C
:101EE00000500040B000002008681844ECE72DE9DD
:101EF000F041FE48006800F110042688A068C0B1D7
:101F0000BEB1A588B54200D93546A8B2A1688847B8
:101F100007462088401B208060882844608000207D
:101F200000F0A3FF8046AAB24146384600F088FD83
:101F300000BF208850B14FF44050ED490880002187
:101F4000084600F09EFF3020EA4908802088A188DA
:101F5000884204DB0320E5490968087218E02088FC
:101F6000002804DD0520E1490968087210E0208896
:101F700070B90620DD49096808720021DE48006852
:101F800080B2801CDD4A42F810103020D949088008
:101F9000BDE8F0812DE9F047D448006800F1100554
:101FA0002E88D2480068077AD6B9042F18D1D448B1
:101FB000007801280FD10021CF48006880B2801C32
:101FC000CE4A42F810103020CA49088000BF0020D5
:101FD000CB49087003E007271020C649088027E096
:101FE000AC88A64201D8042000E002200746B44293
:101FF00000D93446A0B2A96888478046002000F086
:1020000029FF8146A2B24946404600F0FFFCA1B23A
:10201000002000F036FF2888001B288068882044B4
:1020200068803020B34908800002B149088000BFB1
:10203000AE4909680F72BDE8F08770B50226AB485B
:1020400000684478A9480068007800F07F00002804
:102050004AD1092C03D1FFF752FD064665E0052C55
:1020600014D1A2480068C0787F280BDC9F48006824
:10207000807838B99D480068808818B99B48006806
:10208000807A08B108256BE000264EE0032C14D1BD
:1020900096480068C07801280DD19448006880886F
:1020A00048B992480068407A00F0200018B1FFF764
:1020B000F0FE064639E0022637E0012C35D18B4888
:1020C0000068C07801280DD188480068808848B928
:1020D00086480068407A00F0200018B1FFF7DEFD66
:1020E000064622E0022620E080480068007800F0E2
:1020F0007F00012805D10B2C17D1FFF72FFD0646D5
:1021000013E07A480068007800F07F0002280BD1C5
:10211000012C03D1FFF7C2FD064606E0032C04D1D3
:10212000FFF75FFE064600E002264EB1E0B2754AB8
:102130001268516988470646032E01D109250FE030
:102140000EB108250CE0062500216B48006880B21E
:10215000801C6A4A42F8101030206649088000BF8F
:10216000624909680D7270BD2DE9F84F5F4800683B
:1021700045780027BA46062D1BD15C4800680078D8
:1021800000F07F00002813D1584909688878012899
:1021900003D15C490968CF690AE0022803D1594993
:1021A00009680F6A04E0032802D1564909684F6A9A
:1021B00099E0002D67D14D4800684088002862D121
:1021C0004A480068C08802285DD148480068007904
:1021D000002858D145480068007800F07F0030B9E9
:1021E00042480068808810B9AFF22F677BE03F4813
:1021F0000068007800F07F00012811D13B49096890
:102200004879404909688A690021904700286AD1C5
:1022100036480068807A002865D0AFF25F6762E0D8
:1022200032480068007800F07F0002285BD12F4818
:102230000068407900F00F062C480068407900F0F3
:1022400070092A480068407900F0800038B12E49B2
:1022500001EB8600D0F8000C00F0300806E02A49B7
:1022600001EB8600D0F8000C00F4405827480078B5
:10227000B04238D9B9F1000F35D1B8F1000F32D0E2
:10228000AFF2C7672FE0082D08D118480068007822
:1022900000F07F0038BBAFF2BB7724E00A2D22D1DB
:1022A00012480068007800F07F0001281BD10F4819
:1022B0000068807AB8B10D480068408898B90B482A
:1022C0000068007978B909480068C08801280AD1F7
:1022D0000649096848790B4909688A6900219047CD
:1022E00008B9AFF2A977EFB1004811E03C00002037
:1022F0004C0000204E000020505C00400060004078
:10230000340000204000002000500040AC000020BD
:102310000068A0F812A0AE48006887610020B847A6
:1023200000240FE0AA4A12685078AA4A126811697C
:1023300088470446032C05D10920A549096808727D
:10234000BDE8F88FA2480068008A4FF6FF71884206
:1023500004D109209E4909680872F1E7022C03D0D4
:102360009B480068008A20B90820994909680872CA
:10237000E6E797480068007800F08000E0B39448F2
:102380000068C088009092480068008A00998842DE
:1023900004D98F4900980968088223E08C480068B6
:1023A000008A8B490968C98888421BDA8848006816
:1023B000008A8849096891F82C10884203DA0020C5
:1023C000854908700EE082480068008A81490968E2
:1023D00091F82C1090FBF1F201FB120010B90120D2
:1023E0007D4908707B48006890F82C107848006898
:1023F0008182FFF7CFFD07E0FFE7032074490968FA
:10240000087200037549088000BF99E710B5744849
:1024100090F82C10002000F056FD6D480068007AFE
:10242000082805D140026D49088010206D490880B8
:1024300067480068007A092801D1012010BD0020FA
:10244000FCE708B56848006880B2001D674931F8AC
:10245000100080B201EB400000905D480068007AF7
:1024600009282FD000980078594909680870009809
:10247000401C009000980078554909684870009801
:10248000401C00900098801C0090009931F8020BCD
:10249000009100F0B9FE4E49096848800098801C00
:1024A0000090009931F8020B009100F0ADFE484910
:1024B000096888800098801C009000980088444932
:1024C0000968C880012042490968087240480068CC
:1024D000C08810B9FFF7B1FD01E0FFF745FEFFF737
:1024E00095FF08BD30B50146414B1A78002011E038
:1024F0000306404C04EB9353D3F8003C48F68F742A
:102500002340C4B2234304063A4D05EB9454C4F867
:10251000003C401C9042EBD341F08003324C241F1E
:10252000236030BD10B52A480068047A022C01D01F
:10253000042C05D1FFF72EFD25480068047A1CE025
:10254000062C19D122480068407805280ED1204871
:102550000068007800F07F0040B91D490968C8781C
:10256000FFF7C0FF24490968086A804719490968CC
:1025700088688047082400E00824154909680C721F
:10258000FFF744FF10BD10B511480068047A032C12
:1025900001D0052C05D1FFF7AAFC0D480068047A8C
:1025A0000EE0072C05D10B490968C868804708244C
:1025B00006E0022C01D0042C01D1082400E00824FC
:1025C000034909680C72FFF721FF10BD7047000036
:1025D0003C00002040000020340000204C0000207F
:1025E000B00000204E000020505C00400060004021
:1025F000AC000020005000404800002010B5084802
:1026000008490860022009680872074807490860FD
:10261000074808490860054909680868804710BDEF
:10262000240200203C000020B000002040000020D8
:10263000E00000204800002010B5002473E147F6B8
:10264000FF70EA490860EA48008800F00F00E94995
:1026500008700846007800287ED1E44844380068B5
:1026600000F44050E4490880E0484438006800F035
:102670003000E2490880DD49443909684BF68F7221
:1026800001EA020080F40050D84944390860096822
:1026900048F6BF7201EA020080F02000D3494439B5
:1026A0000860D348008800F01000002838D10846A0
:1026B000006848F60F710840CC4944390860FFF7BC
:1026C00031FFCA49443909684BF68F7201EA0200AA
:1026D000C949098801F4805109B180F48050C64984
:1026E000098801F4005109B180F40050BF49443910
:1026F0000860096848F6BF7201EA0200BF4909781C
:1027000001F0100109B180F01000BC49097801F016
:10271000200109B180F02000B4494439086010BD9F
:10272000B2484438006884B204F08000D8B3AF489F
:102730004438006848F60F710840AC4944390860D5
:10274000FFF7F0FEA949443909684BF68F7201EA98
:102750000200A949098800E0A6E001F4805109B10E
:1027600080F48050A449098801F4005109B180F433
:1027700000509E4944390860096848F6BF7201EA72
:1027800002009E49097801F0100109B180F01000A3
:102790009A49097801F0200109B180F0200093499D
:1027A00044390860BBE7FFE704F40060D8B38F4802
:1027B00044380068C0F30E0048F68F7108408B491A
:1027C00044390860FFF73DFE8849443909684BF6F3
:1027D0008F7201EA02008849098801F4805109B129
:1027E00080F480508449098801F4005109B180F4D3
:1027F00000507E4944390860096848F6BF7201EA12
:1028000002007E49097801F0100109B180F0100042
:102810007A49097801F0200109B180F0200073495C
:10282000443908607BE7FFE704F4004000287AD0D1
:102830006E4844380068C0F30E0048F68F710840B7
:102840006A4944390860FFF79EFE684944390968BF
:102850004BF68F7201EA02006749098801F4805142
:1028600009B180F480506449098801F4005109B12C
:1028700080F400505D4944390860096848F6BF7229
:1028800001EA02005D49097801F0100109B180F008
:1028900010005A49097801F0200109B180F02000A8
:1028A0005249443908603AE752480078544901EBEC
:1028B0008000D0F8000C84B204F40040C0B14D4850
:1028C000007801EB8000D0F8000CC0F30E0048F651
:1028D0008F71084047490978494A02EB8101C1F8E4
:1028E000000C44490978491E464A52F821008047A5
:1028F00004F08000B8B13F480078414901EB800006
:10290000D0F8000C48F60F7108403A4909783C4A63
:1029100002EB8101C1F8000C36490978491E3A4A98
:1029200052F8210080473148006880B23049088061
:1029300000F4004000287FF482AE00BFEFE610B53F
:10294000002449E047F6FF702849086028480088BD
:1029500000F00F002749087008460078284901EB6D
:102960008000D0F8000C84B204F40040C8B12148C3
:10297000007801EB8000D0F8000CC0F30E0048F6A0
:102980008F7108401B4909781D4A02EB8101C1F88B
:10299000000C18490978491E1A4A52F8210080474C
:1029A0001AE004F08000B8B112480078144901EB35
:1029B0008000D0F8000C48F60F7108400D490978E6
:1029C0000F4A02EB8101C1F8000C0A490978491E3F
:1029D0000D4A52F8210080470448006880B204493B
:1029E000088000F400400028ACD110BD445C0040D9
:1029F0006C000020380000204C0000204E00002019
:102A0000005000408C00002070000020F0B51446FB
:102A100004F1010C4FEA6C07DFF848C00CEB4103EE
:102A20003D460AE00678401C90F800C046EA0C22B9
:102A300023F8022B9B1C401C6D1E002DF2D1F0BD13
:102A4000F0B5561C7510074E06EB41042B4605E009
:102A500034F8047B20F8017B401C5B1E002BF7D16F
:102A6000F0BD000000600040F74908607047F6487C
:102A7000006880B27047F449091D08607047F24849
:102A8000001D006880B27047EF480830006880B2CF
:102A90007047ED490C3108607047EB480C30006816
:102AA00080B270474FF6F8710140E74A103211606A
:102AB0007047E5481030006880B27047E34B03EB85
:102AC0008002C2F8001C70470146E04A02EB810018
:102AD000D0F8000C80B2704710B5DC4B03EB8002DD
:102AE000D2F8002C48F68F131A400A43D74C04EB57
:102AF0008003C3F8002C10BD0146D44A02EB8100CC
:102B0000D0F8000C00F4C060704710B5CF4C04EB57
:102B10008003D3F8003C48F6BF7403EA040201F0D6
:102B200010030BB182F0100201F020030BB182F010
:102B30002002C64C04EB8003C3F8002C10BD10B576
:102B4000C24C04EB8003D3F8003C4BF68F7403EACD
:102B5000040201F480530BB182F4805201F400535B
:102B60000BB182F40052B94C04EB8003C3F8002C83
:102B700010BD30B503460C461846FFF7A5FF0546C5
:102B8000012C07D125F48050B04A02EB8301C1F833
:102B9000000C08E0022C06D125F01000AB4A02EB35
:102BA0008301C1F8000C30BD0146A84A02EB810048
:102BB000D0F8000C00F0300070470146A34A02EB49
:102BC0008100D0F8000C00F4405070479F4B03EB9D
:102BD0008002D2F8002C48F6BF7302EA030181F0AC
:102BE000100181F02001994B03EB8002C2F8001C18
:102BF0007047964B03EB8002D2F8002C4BF68F7394
:102C000002EA030181F4805181F400518F4B03EB00
:102C10008002C2F8001C70478C4A02EB8001D1F898
:102C2000001C41F4807148F68F721140874B03EB12
:102C30008002C2F8001C7047844A02EB8001D1F880
:102C4000001C48F68F621140804B03EB8002C2F8F3
:102C5000001C70477D4A02EB8001D1F8001C48F649
:102C60008F621140794B03EB8002C2F8001C704761
:102C7000764A02EB8001D1F8001C41F4807148F6DD
:102C80008F721140714B03EB8002C2F8001C704739
:102C90006E4A02EB8001D1F8001C41F4807148F6C5
:102CA0008F721140694B03EB8002C2F8001C704721
:102CB000664A02EB8001D1F8001C48F68F62114091
:102CC000624B03EB8002C2F8001C704701465F4A6A
:102CD00002EB8100D0F8000C00F03000102801D188
:102CE000012070470020FCE70146584A02EB8100B2
:102CF000D0F8000C00F44050B0F5805F01D1012005
:102D000070470020FCE7514A02EB8001D1F8001C1B
:102D1000C1F30E0148F68F7211404C4B03EB800259
:102D2000C2F8001C7047494A02EB8001D1F8001C30
:102D300048F60F721140454B03EB8002C2F8001CAD
:102D40007047424A02EB8001D1F8001C48F68F72AE
:102D5000114041F480413D4B03EB8002C2F8001C5E
:102D600070473A4A02EB8001D1F8001C48F68F7296
:102D7000114041F04001354B03EB8002C2F8001CCA
:102D80007047324A02EB8001D1F8001C01F4804107
:102D900069B102EB8001D1F8001C48F68F72114036
:102DA00041F48041294B03EB8002C2F8001C7047BC
:102DB000264A02EB8001D1F8001C01F0400169B104
:102DC00002EB8001D1F8001C48F68F72114041F0EF
:102DD00040011E4B03EB8002C2F8001C704710B587
:102DE0001A4B03EB8002D2F8002C48F68F731A407E
:102DF0000A43164C04EB8003C3F8002C10BD0146B7
:102E0000124A02EB8100D0F8000C00F00F0070476E
:102E100010B54A1052000C4B10331B689BB203EBE9
:102E2000C0030B4C44F8132010BD10B54A105300DA
:102E3000054A1032126892B202EBC002121D044C15
:102E400044F8123010BD0000405C004000500040CB
:102E5000006000400146EF48006880B200EBC1000E
:102E6000ED4A32F8100080B270470146E948006828
:102E700080B200EBC100001DE74A32F8100080B2BA
:102E80007047E44A126892B202EBC002921CE24B15
:102E900043F81210704702463E290BDD481101F03D
:102EA0001F030BB9431E98B24FF4004343EA80233B
:102EB000136007E0481001F001030BB1431C98B206
:102EC00083021360704710B50246D248006880B292
:102ED00000EBC200801DD04C04EB40033E290BDD0B
:102EE000481101F01F040CB9441EA0B24FF4004475
:102EF00044EA80241C6007E0481001F001040CB192
:102F0000441CA0B284021C6010BD0146C148006888
:102F100080B200EBC100801CBF4A32F81000C0F341
:102F2000090070470146BB48006880B200EBC10051
:102F3000801DB94A32F81000C0F30900704730B55F
:102F40004B105B00B34C2468A4B204EBC004B24D38
:102F500045F8143053105C00AE4B1B689BB203EB7A
:102F6000C0031B1D45F8134030BD10B54A10520078
:102F7000A84B1B689BB203EBC003A74C44F813207B
:102F800010BD10B54A105300A24A126892B202EB6B
:102F9000C002121DA04C44F8123010BD01469D48DD
:102FA000006880B200EBC1009B4A32F8100080B28A
:102FB000704701469748006880B200EBC100001DD1
:102FC000954A32F8100080B2704730B50B46012B9D
:102FD0001FD19049096889B201EBC001891C8E4D4F
:102FE00005EB41043E2A0BDD511102F01F050DB91E
:102FF0004D1EA9B24FF4004545EA8125256007E042
:10300000511002F001050DB14D1CA9B28D022560D1
:103010000AE0022B08D17F49096889B201EBC0019F
:10302000891C7D4C44F81120012B1FD17949096876
:1030300089B201EBC001891D774D05EB41043E2AA1
:103040000BDD511102F01F050DB94D1EA9B24FF451
:10305000004545EA8125256007E0511002F0010591
:103060000DB14D1CA9B28D0225600AE0022B08D1DA
:103070006849096889B201EBC001891D664C44F8B2
:10308000112030BD30B5034601291FD161480068C9
:1030900080B200EBC300801C5F4D05EB40043E2A6C
:1030A0000BDD501102F01F050DB9451EA8B24FF4FB
:1030B000004545EA8025256007E0501002F0010533
:1030C0000DB1451CA8B2850225600AE0022908D18D
:1030D0005048006880B200EBC300801C4E4C44F89E
:1030E000102030BD30B5034601291FD14948006882
:1030F00080B200EBC300801D474D05EB40043E2A23
:103100000BDD501102F01F050DB9451EA8B24FF49A
:10311000004545EA8025256007E0501002F00105D2
:103120000DB1451CA8B2850225600AE0022908D12C
:103130003848006880B200EBC300801D364C44F86C
:10314000102030BD01463348006880B200EBC1005A
:10315000801C314A32F81000C0F309007047014664
:103160002C48006880B200EBC100801D2A4A32F86A
:103170001000C0F30900704701462648006880B27D
:1031800000EBC100801D244A32F8100000F47C409E
:1031900008B1012070471F48006880B200EBC100F1
:1031A000801C1D4A32F81000C0F3090008B102204B
:1031B000F0E70020EEE710B501290FD1174B03EB24
:1031C0008002D2F8002C48F68F731A4042F0400279
:1031D000124C04EB8003C3F8002C10E002290ED13E
:1031E0000E4B03EB8002D2F8002C48F68F731A4086
:1031F00042F48042094C04EB8003C3F8002C10BD5C
:10320000024641EA022070470146CAB20B1243EA65
:1032100002207047505C00400060004000500040B9
:1032200010B50020FDF73EFF0121C805FDF7E7FFBF
:1032300010BD03206B49086070476B48817A19B153
:103240000521684A116002E00121664A1160704759
:103250000EB54FF4A060FDF73BFC4FF48020FEF765
:10326000AEFA4FF48020009008208DF80500012070
:103270008DF806006846FEF72BFA14208DF808003A
:1032800001208DF8090000208DF80A0001208DF83A
:103290000B0002A8FDF721FC2A208DF80800002071
:1032A0008DF8090002A8FDF718FC0EBD2DE9FF47B7
:1032B00004460D4616461F46DDF830800020029079
:1032C0000390009001900120FFF7C4FD8146082281
:1032D000494602A8FFF79AFB0120FFF777FC01207F
:1032E0008DF800008DF801408DF802508DF80360D4
:1032F0008DF804708DF80A80FFF7ACFD8146082236
:10330000494602A8FFF782FB0120FFF75FFC02207D
:10331000FFF7A0FD8146052249466846FFF776FB88
:103320000220FFF753FCBDE8FF877FB5044600206D
:1033300002900390009001900120FFF78BFD05465D
:103340000822294602A8FFF761FB0120FFF73EFC97
:1033500001208DF8000020788DF8010060788DF84C
:103360000200A0788DF80300E0788DF80400207941
:103370008DF80A000120FFF76DFD05460822294659
:1033800002A8FFF743FB0120FFF720FC0220FFF714
:1033900061FD0546052229466846FFF737FB0220F6
:1033A000FFF714FC7FBD10B5104B18681B1D196882
:1033B0001B1D1A68A8B10E4CA070030A2371030CE0
:1033C000A371030E2372A1720B0A23730B0CA37358
:1033D0000B0E2374A274130A2375130CA375130E1A
:1033E000237610BD5401002024020020E8F7FF1FBF
:1033F0005000002010B5374800683749088008465B
:10340000008800F4806035490988084030B14FF6E3
:10341000FF30304908603249486880472E480088AC
:1034200000F400502D490988084018B14DF6FF708E
:10343000284908602848008800F4805027490988F6
:10344000084030B14EF6FF7022490860002000F0BD
:10345000DDF92148008800F400602049098808400F
:1034600060B12048007810B100F0B0F902E002200D
:1034700000F0CCF94FF2FF7016490860164800883A
:1034800000F4007015490988084040B14FF6FF501C
:103490001049086014480078401C134908700E4811
:1034A000008800F480700D490988084030B14FF65B
:1034B000FF6008490860072000F0A8F90648008866
:1034C00000F4004005490988084008B1FFF7B4F846
:1034D00010BD0000445C00406C000020460000204D
:1034E000B0000020580100206E00002010B5FFF74A
:1034F0005AFF002096490968887200F045F90020BB
:10350000944908604FF43F4093490880084600887A
:103510009049091F086000209049086010BD10B54F
:1035200000208B490968887289490968C8728C48EB
:10353000C0798749096848720020FFF7B3FA4FF451
:1035400000710020FFF7C8FA10210020FFF7DDFA14
:1035500018210020FFF769FC58210020FFF758FCD4
:103560000020FFF777FB7F4890F82C100020FFF732
:10357000AAFC0020FFF73DFB4FF4C0610120FFF7DC
:10358000ABFA4FF480710120FFF742FC08210120C3
:10359000FFF777FC20210120FFF7B7FA4FF488717D
:1035A0000120FFF742FC02210120FFF78CFC4FF4C1
:1035B00040510120FFF7C3FA4FF4C0610220FFF72A
:1035C0008BFA4FF490710220FFF722FC05210220B4
:1035D000FFF757FC20210220FFF797FA01205F49EF
:1035E00008600020FEF77EFF10BD704770477047EF
:1035F0007047014629B90120554A126810820020FF
:1036000070475948FCE710B5044658492046FEF774
:103610004FFC10BD10B5044655492046FEF748FC46
:1036200010BD10B5044653492046FEF741FC10BDBD
:1036300010B5044650492046FEF73AFC10BD70B55F
:1036400004460025062C29D141480068007800F086
:103650007F00012822D13E480068407902281DDA07
:103660003B4800688078222809D1394800684079B1
:1036700010B9AFF243051CE0AFF2590519E0344828
:1036800000688078212814D131480068407910B949
:10369000AFF27F050DE0AFF291050AE02C4800681B
:1036A000007800F07F00212803D1032C01D1AFF274
:1036B000BD050DB9022070BD254800688561002157
:1036C0002348006841820020A8470020F3E72048F3
:1036D0000068C178244801600020704700B50246A8
:1036E0001B480068007800F07F00212804D10B2AD5
:1036F00002D1FFF7ECFF00BD0220FCE710B5044645
:103700001E492046FEF7D4FB10BD10B504461C49E7
:103710002046FEF7CDFB10BD70B505460C4800688D
:10372000C478042C01DD002070BD164800EBC401F4
:103730002846FEF7BDFBF7E70246002901DD02201F
:103740007047002A01DD0220FAE70020F8E70000B8
:103750003C000020445C0040460000205401002052
:1037600044390008B0000020A80000202C010020EF
:103770001C0100202401002014010020040100206D
:103780000C0100203401002001214A480160002082
:10379000494A108010460088464A10600020121DD9
:1037A00010604FF4E050444A108010460088414AAF
:1037B00010600020704701203E4908600020091D6C
:1037C00008600320091F08600020704710B53948C1
:1037D000006884B244F0080436480460006884B28B
:1037E00044F0040433480460FFF723FD10BD10B516
:1037F0003048006884B224F004042E480460FFF7C7
:103800001CFD4FF43F402B49086010BD70B50546C4
:10381000072D01D02948057028480078082841D292
:10382000DFE800F0040A1016212E4142FFF7DFFF07
:103830000620224908703BE0FFF7D9FF04201F490A
:10384000087035E002201D494870032008702FE001
:103850001A484078401E194948700846407808B90F
:103860000420087024E01348006884B244F0100477
:10387000104804600520114908700A20487017E0BC
:103880000E484078401E0D4948700846407840B9BF
:103890000848006884B224F010040648046006203A
:1038A000087005E000BF00BF06200449087000BF93
:1038B00000BF70BD405C0040460000205901002060
:1038C00070477047704770477047754600F028F89A
:1038D000AE4605006946534620F00700854618B0FD
:1038E00020B5FDF7E3F8BDE820404FF000064FF0AB
:1038F00000074FF000084FF0000B21F00701AC4625
:10390000ACE8C009ACE8C009ACE8C009ACE8C00943
:103910008D4670470446AFF300802046FCF74DFC0F
:103920000048704740020020344310100134431017
:103930001001120100020000004083041057000231
:103940000102030109024200020100803209040061
:10395000000203010100092110012101223F00079B
:1039600005810310000A0705010310000A0904017C
:103970000001030102000921100121012236000784
:1039800005820340000A05010906A101050719E0A7
:1039900029E7150025017501950881029501750833
:1039A0008103950575010508190129059102950105
:1039B000750391039506750815002565050719001F
:1039C00029658100C005010902A10185010901A144
:1039D00000050919012903150025019503750181C9
:1039E0000295017505810305010930093109381572
:1039F00081257F750895038106C0C0040309041A58
:103A0000037F5EDE5D1F66FC7F3575505BD179629A
:103A100080096750966C51F85322034400470055C3
:103A200000540020004100690072004D006F0075D5
:103A30000073006500000000000000005C3A000810
:103A4000000000205C01000028010008F83A00088E
:103A50005C01002044070000840100081184A24A90
:103A600004E00901020304060708092916691A057A
:103A70001E02040608141A03531254124D12331274
:103A800032123102113013CD250A320804412303CA
:103A90000113ED3414081F351B08EF041AF1041349
:103AA0003F361B08DD041339371B08FD081A0B08C5
:103AB0001A1904415A40701AEB280916581AED1CBD
:103AC0001332393308121A440832421A8608323F38
:103AD0001A560832091AC50832365A76101AFB08E7
:103AE00032041AFF08321A13193A33082222502AD4
:083AF00020104119AB11000088
:04000005080000ED02
:00000001FF
